{"abi":[{"inputs":[],"stateMutability":"nonpayable","type":"constructor","name":"constructor"},{"anonymous":false,"inputs":[{"indexed":false,"internalType":"address","name":"sender","type":"address"},{"indexed":false,"internalType":"address","name":"recipient","type":"address"},{"indexed":false,"internalType":"uint256","name":"amount","type":"uint256"}],"name":"Transfer","type":"event"},{"inputs":[{"internalType":"uint256","name":"coins","type":"uint256"}],"name":"addCoins","outputs":[{"internalType":"bool","name":"","type":"bool"}],"stateMutability":"nonpayable","type":"function"},{"inputs":[],"name":"getBalance","outputs":[{"internalType":"uint256","name":"","type":"uint256"}],"stateMutability":"view","type":"function"},{"inputs":[],"name":"totalCoins","outputs":[{"internalType":"uint256","name":"","type":"uint256"}],"stateMutability":"view","type":"function"},{"inputs":[{"internalType":"address","name":"recipient","type":"address"},{"internalType":"uint256","name":"amount","type":"uint256"}],"name":"transfer","outputs":[{"internalType":"bool","name":"","type":"bool"}],"stateMutability":"nonpayable","type":"function"}],"bytecode":"60806040526107d060005534801561001657600080fd5b5060008054338252600160205260409091205561023c806100386000396000f3fe608060405234801561001057600080fd5b506004361061004c5760003560e01c80630173e3f41461005157806312065fe01461007957806332454dbb14610098578063a9059cbb146100a0575b600080fd5b61006461005f366004610179565b6100b3565b60405190151581526020015b60405180910390f35b336000908152600160205260409020545b604051908152602001610070565b60005461008a565b6100646100ae366004610192565b6100d3565b6000816000808282546100c691906101e0565b9091555060019392505050565b6001600160a01b0382166000908152600160205260408120805483919083906100fd9084906101e0565b909155505033600090815260016020526040812080548492906101219084906101f3565b9091555050604080513381526001600160a01b03851660208201529081018390527fddf252ad1be2c89b69c2b068fc378daa952ba7f163c4a11628f55a4df523b3ef9060600160405180910390a15060015b92915050565b60006020828403121561018b57600080fd5b5035919050565b600080604083850312156101a557600080fd5b82356001600160a01b03811681146101bc57600080fd5b946020939093013593505050565b634e487b7160e01b600052601160045260246000fd5b80820180821115610173576101736101ca565b81810381811115610173576101736101ca56fea2646970667358221220d6c25edf51ff842ccde693217ccc600d0e626cec75adce4d5a37760bae533bef64736f6c63430008150033","bytecodeSha1":"f1df186e9d517c39ee742e36ac62702052eca90c","compiler":{"evm_version":"istanbul","optimizer":{"enabled":true,"runs":200},"version":"0.8.21+commit.d9974bed"},"contractName":"SuperCoin","language":"Solidity","natspec":{"kind":"dev","methods":{},"version":1},"opcodes":"PUSH1 0x80 PUSH1 0x40 MSTORE CALLVALUE DUP1 ISZERO PUSH2 0x10 JUMPI PUSH1 0x0 DUP1 REVERT JUMPDEST POP PUSH1 0x4 CALLDATASIZE LT PUSH2 0x4C JUMPI PUSH1 0x0 CALLDATALOAD PUSH1 0xE0 SHR DUP1 PUSH4 0x173E3F4 EQ PUSH2 0x51 JUMPI DUP1 PUSH4 0x12065FE0 EQ PUSH2 0x79 JUMPI DUP1 PUSH4 0x32454DBB EQ PUSH2 0x98 JUMPI DUP1 PUSH4 0xA9059CBB EQ PUSH2 0xA0 JUMPI JUMPDEST PUSH1 0x0 DUP1 REVERT JUMPDEST PUSH2 0x64 PUSH2 0x5F CALLDATASIZE PUSH1 0x4 PUSH2 0x179 JUMP JUMPDEST PUSH2 0xB3 JUMP JUMPDEST PUSH1 0x40 MLOAD SWAP1 ISZERO ISZERO DUP2 MSTORE PUSH1 0x20 ADD JUMPDEST PUSH1 0x40 MLOAD DUP1 SWAP2 SUB SWAP1 RETURN JUMPDEST CALLER PUSH1 0x0 SWAP1 DUP2 MSTORE PUSH1 0x1 PUSH1 0x20 MSTORE PUSH1 0x40 SWAP1 KECCAK256 SLOAD JUMPDEST PUSH1 0x40 MLOAD SWAP1 DUP2 MSTORE PUSH1 0x20 ADD PUSH2 0x70 JUMP JUMPDEST PUSH1 0x0 SLOAD PUSH2 0x8A JUMP JUMPDEST PUSH2 0x64 PUSH2 0xAE CALLDATASIZE PUSH1 0x4 PUSH2 0x192 JUMP JUMPDEST PUSH2 0xD3 JUMP JUMPDEST PUSH1 0x0 DUP2 PUSH1 0x0 DUP1 DUP3 DUP3 SLOAD PUSH2 0xC6 SWAP2 SWAP1 PUSH2 0x1E0 JUMP JUMPDEST SWAP1 SWAP2 SSTORE POP PUSH1 0x1 SWAP4 SWAP3 POP POP POP JUMP JUMPDEST PUSH1 0x1 PUSH1 0x1 PUSH1 0xA0 SHL SUB DUP3 AND PUSH1 0x0 SWAP1 DUP2 MSTORE PUSH1 0x1 PUSH1 0x20 MSTORE PUSH1 0x40 DUP2 KECCAK256 DUP1 SLOAD DUP4 SWAP2 SWAP1 DUP4 SWAP1 PUSH2 0xFD SWAP1 DUP5 SWAP1 PUSH2 0x1E0 JUMP JUMPDEST SWAP1 SWAP2 SSTORE POP POP CALLER PUSH1 0x0 SWAP1 DUP2 MSTORE PUSH1 0x1 PUSH1 0x20 MSTORE PUSH1 0x40 DUP2 KECCAK256 DUP1 SLOAD DUP5 SWAP3 SWAP1 PUSH2 0x121 SWAP1 DUP5 SWAP1 PUSH2 0x1F3 JUMP JUMPDEST SWAP1 SWAP2 SSTORE POP POP PUSH1 0x40 DUP1 MLOAD CALLER DUP2 MSTORE PUSH1 0x1 PUSH1 0x1 PUSH1 0xA0 SHL SUB DUP6 AND PUSH1 0x20 DUP3 ADD MSTORE SWAP1 DUP2 ADD DUP4 SWAP1 MSTORE PUSH32 0xDDF252AD1BE2C89B69C2B068FC378DAA952BA7F163C4A11628F55A4DF523B3EF SWAP1 PUSH1 0x60 ADD PUSH1 0x40 MLOAD DUP1 SWAP2 SUB SWAP1 LOG1 POP PUSH1 0x1 JUMPDEST SWAP3 SWAP2 POP POP JUMP JUMPDEST PUSH1 0x0 PUSH1 0x20 DUP3 DUP5 SUB SLT ISZERO PUSH2 0x18B JUMPI PUSH1 0x0 DUP1 REVERT JUMPDEST POP CALLDATALOAD SWAP2 SWAP1 POP JUMP JUMPDEST PUSH1 0x0 DUP1 PUSH1 0x40 DUP4 DUP6 SUB SLT ISZERO PUSH2 0x1A5 JUMPI PUSH1 0x0 DUP1 REVERT JUMPDEST DUP3 CALLDATALOAD PUSH1 0x1 PUSH1 0x1 PUSH1 0xA0 SHL SUB DUP2 AND DUP2 EQ PUSH2 0x1BC JUMPI PUSH1 0x0 DUP1 REVERT JUMPDEST SWAP5 PUSH1 0x20 SWAP4 SWAP1 SWAP4 ADD CALLDATALOAD SWAP4 POP POP POP JUMP JUMPDEST PUSH4 0x4E487B71 PUSH1 0xE0 SHL PUSH1 0x0 MSTORE PUSH1 0x11 PUSH1 0x4 MSTORE PUSH1 0x24 PUSH1 0x0 REVERT JUMPDEST DUP1 DUP3 ADD DUP1 DUP3 GT ISZERO PUSH2 0x173 JUMPI PUSH2 0x173 PUSH2 0x1CA JUMP JUMPDEST DUP2 DUP2 SUB DUP2 DUP2 GT ISZERO PUSH2 0x173 JUMPI PUSH2 0x173 PUSH2 0x1CA JUMP INVALID LOG2 PUSH5 0x6970667358 0x22 SLT KECCAK256 0xD6 0xC2 0x5E 0xDF MLOAD SELFDESTRUCT DUP5 0x2C 0xCD 0xE6 SWAP4 0x21 PUSH29 0xCC600D0E626CEC75ADCE4D5A37760BAE533BEF64736F6C634300081500 CALLER ","sha1":"dfa30311b977fbb0466dc50a2d67ef065f862afe","source":"// SPDX-License-Identifier: MIT\n\npragma solidity ^0.8.0;\n\ncontract SuperCoin {\n    uint256 internal issuedCoins = 2000;\n    mapping(address => uint256) internal balances;\n\n    event Transfer(address sender, address recipient, uint256 amount);\n\n    constructor(){\n        balances[msg.sender] = issuedCoins;\n    }\n\n    function totalCoins() public view returns (uint256){\n        return issuedCoins;\n    }\n\n    function addCoins(uint256 coins) public returns (bool){\n        issuedCoins += coins;\n        return true;\n    }\n\n    function getBalance() public view returns (uint256){\n        return balances[msg.sender];\n    }\n\n    function transfer(address recipient, uint256 amount) public returns (bool){\n        balances[recipient] += amount;\n        balances[msg.sender] -= amount;\n        emit Transfer(msg.sender, recipient, amount);\n        return true;\n    }\n\n}","sourcePath":"contracts/SuperCoin.sol","type":"contract","deployment":{"address":"0x635567C52A6932E066D2498287FE6bD1Fe2D688E","chainid":"80001","blockHeight":39210206}}