{"abi":[{"inputs":[],"stateMutability":"nonpayable","type":"constructor","name":"constructor"},{"anonymous":false,"inputs":[{"indexed":false,"internalType":"string","name":"sender","type":"string"},{"indexed":false,"internalType":"string","name":"recipient","type":"string"},{"indexed":false,"internalType":"uint256","name":"amount","type":"uint256"},{"indexed":false,"internalType":"uint256","name":"t","type":"uint256"}],"name":"Transfer","type":"event"},{"inputs":[{"internalType":"uint256","name":"coins","type":"uint256"}],"name":"addCoins","outputs":[{"internalType":"bool","name":"","type":"bool"}],"stateMutability":"nonpayable","type":"function"},{"inputs":[{"internalType":"string","name":"email","type":"string"}],"name":"createAccount","outputs":[{"internalType":"bool","name":"","type":"bool"}],"stateMutability":"nonpayable","type":"function"},{"inputs":[{"internalType":"string","name":"email","type":"string"}],"name":"getBalance","outputs":[{"internalType":"uint256","name":"","type":"uint256"}],"stateMutability":"view","type":"function"},{"inputs":[],"name":"totalCoins","outputs":[{"internalType":"uint256","name":"","type":"uint256"}],"stateMutability":"view","type":"function"},{"inputs":[{"internalType":"uint256","name":"","type":"uint256"}],"name":"transactions","outputs":[{"internalType":"string","name":"sender","type":"string"},{"internalType":"string","name":"receiver","type":"string"},{"internalType":"uint256","name":"amount","type":"uint256"},{"internalType":"uint256","name":"timestamp","type":"uint256"}],"stateMutability":"view","type":"function"},{"inputs":[{"internalType":"string","name":"sender","type":"string"},{"internalType":"string","name":"recipient","type":"string"},{"internalType":"uint256","name":"amount","type":"uint256"}],"name":"transfer","outputs":[{"internalType":"bool","name":"","type":"bool"}],"stateMutability":"nonpayable","type":"function"}],"bytecode":"60806040526107d060005534801561001657600080fd5b506000546040516e746872656540676d61696c2e636f6d60881b8152600190600f0190815260405190819003602001902055610857806100576000396000f3fe608060405234801561001057600080fd5b50600436106100625760003560e01c80630173e3f414610067578063298daf5b1461008f57806332454dbb146100a25780633a51d246146100b45780639ace38c2146100c75780639b80b050146100ea575b600080fd5b61007a61007536600461048b565b6100fd565b60405190151581526020015b60405180910390f35b61007a61009d366004610547565b61019a565b6000545b604051908152602001610086565b6100a66100c2366004610547565b6101cf565b6100da6100d536600461048b565b6101f7565b60405161008694939291906105d4565b61007a6100f836600461060d565b610347565b6000816000808282546101109190610690565b9091555050604080516080808252600490820152634e6f6e6560e01b60a082015260c060208201819052600f908201526e746872656540676d61696c2e636f6d60881b60e08201529081018390524260608201527f21c7d11c3d49b4d4060a66592c507eb89d6f5bc9fc9478162dd9dafc5c41672a906101000160405180910390a1506001919050565b60008060016040516101b79064195b585a5b60da1b815260050190565b90815260405190819003602001902055506001919050565b60006001826040516101e191906106a9565b9081526020016040518091039020549050919050565b6002818154811061020757600080fd5b906000526020600020906004020160009150905080600001805461022a906106c5565b80601f0160208091040260200160405190810160405280929190818152602001828054610256906106c5565b80156102a35780601f10610278576101008083540402835291602001916102a3565b820191906000526020600020905b81548152906001019060200180831161028657829003601f168201915b5050505050908060010180546102b8906106c5565b80601f01602080910402602001604051908101604052809291908181526020018280546102e4906106c5565b80156103315780601f1061030657610100808354040283529160200191610331565b820191906000526020600020905b81548152906001019060200180831161031457829003601f168201915b5050505050908060020154908060030154905084565b60008160018460405161035a91906106a9565b908152602001604051809103902060008282546103779190610690565b925050819055508160018560405161038f91906106a9565b908152602001604051809103902060008282546103ac91906106ff565b9091555050604080516080810182528581526020810185905290810183905242606082015260028054600181018255600091909152815182916004027f405787fa12a823e0f2b7631cc41b3ba8828b3321ca811111fa75cd3aa3bb5ace019081906104179082610761565b506020820151600182019061042c9082610761565b50604082015181600201556060820151816003015550507f21c7d11c3d49b4d4060a66592c507eb89d6f5bc9fc9478162dd9dafc5c41672a8585854260405161047894939291906105d4565b60405180910390a1506001949350505050565b60006020828403121561049d57600080fd5b5035919050565b634e487b7160e01b600052604160045260246000fd5b600082601f8301126104cb57600080fd5b813567ffffffffffffffff808211156104e6576104e66104a4565b604051601f8301601f19908116603f0116810190828211818310171561050e5761050e6104a4565b8160405283815286602085880101111561052757600080fd5b836020870160208301376000602085830101528094505050505092915050565b60006020828403121561055957600080fd5b813567ffffffffffffffff81111561057057600080fd5b61057c848285016104ba565b949350505050565b60005b8381101561059f578181015183820152602001610587565b50506000910152565b600081518084526105c0816020860160208601610584565b601f01601f19169290920160200192915050565b6080815260006105e760808301876105a8565b82810360208401526105f981876105a8565b604084019590955250506060015292915050565b60008060006060848603121561062257600080fd5b833567ffffffffffffffff8082111561063a57600080fd5b610646878388016104ba565b9450602086013591508082111561065c57600080fd5b50610669868287016104ba565b925050604084013590509250925092565b634e487b7160e01b600052601160045260246000fd5b808201808211156106a3576106a361067a565b92915050565b600082516106bb818460208701610584565b9190910192915050565b600181811c908216806106d957607f821691505b6020821081036106f957634e487b7160e01b600052602260045260246000fd5b50919050565b818103818111156106a3576106a361067a565b601f82111561075c57600081815260208120601f850160051c810160208610156107395750805b601f850160051c820191505b8181101561075857828155600101610745565b5050505b505050565b815167ffffffffffffffff81111561077b5761077b6104a4565b61078f8161078984546106c5565b84610712565b602080601f8311600181146107c457600084156107ac5750858301515b600019600386901b1c1916600185901b178555610758565b600085815260208120601f198616915b828110156107f3578886015182559484019460019091019084016107d4565b50858210156108115787850151600019600388901b60f8161c191681555b5050505050600190811b0190555056fea26469706673582212207ac2bcb97a97412389a708aa78144c4672ce6bc77c637a938ccbeab4d22c8d9964736f6c63430008150033","bytecodeSha1":"5d0e79c547d8d5bb98feb172fdfb5b370eba10a9","compiler":{"evm_version":"istanbul","optimizer":{"enabled":true,"runs":200},"version":"0.8.21+commit.d9974bed"},"contractName":"SuperCoin","language":"Solidity","natspec":{"kind":"dev","methods":{},"version":1},"opcodes":"PUSH1 0x80 PUSH1 0x40 MSTORE CALLVALUE DUP1 ISZERO PUSH2 0x10 JUMPI PUSH1 0x0 DUP1 REVERT JUMPDEST POP PUSH1 0x4 CALLDATASIZE LT PUSH2 0x62 JUMPI PUSH1 0x0 CALLDATALOAD PUSH1 0xE0 SHR DUP1 PUSH4 0x173E3F4 EQ PUSH2 0x67 JUMPI DUP1 PUSH4 0x298DAF5B EQ PUSH2 0x8F JUMPI DUP1 PUSH4 0x32454DBB EQ PUSH2 0xA2 JUMPI DUP1 PUSH4 0x3A51D246 EQ PUSH2 0xB4 JUMPI DUP1 PUSH4 0x9ACE38C2 EQ PUSH2 0xC7 JUMPI DUP1 PUSH4 0x9B80B050 EQ PUSH2 0xEA JUMPI JUMPDEST PUSH1 0x0 DUP1 REVERT JUMPDEST PUSH2 0x7A PUSH2 0x75 CALLDATASIZE PUSH1 0x4 PUSH2 0x48B JUMP JUMPDEST PUSH2 0xFD JUMP JUMPDEST PUSH1 0x40 MLOAD SWAP1 ISZERO ISZERO DUP2 MSTORE PUSH1 0x20 ADD JUMPDEST PUSH1 0x40 MLOAD DUP1 SWAP2 SUB SWAP1 RETURN JUMPDEST PUSH2 0x7A PUSH2 0x9D CALLDATASIZE PUSH1 0x4 PUSH2 0x547 JUMP JUMPDEST PUSH2 0x19A JUMP JUMPDEST PUSH1 0x0 SLOAD JUMPDEST PUSH1 0x40 MLOAD SWAP1 DUP2 MSTORE PUSH1 0x20 ADD PUSH2 0x86 JUMP JUMPDEST PUSH2 0xA6 PUSH2 0xC2 CALLDATASIZE PUSH1 0x4 PUSH2 0x547 JUMP JUMPDEST PUSH2 0x1CF JUMP JUMPDEST PUSH2 0xDA PUSH2 0xD5 CALLDATASIZE PUSH1 0x4 PUSH2 0x48B JUMP JUMPDEST PUSH2 0x1F7 JUMP JUMPDEST PUSH1 0x40 MLOAD PUSH2 0x86 SWAP5 SWAP4 SWAP3 SWAP2 SWAP1 PUSH2 0x5D4 JUMP JUMPDEST PUSH2 0x7A PUSH2 0xF8 CALLDATASIZE PUSH1 0x4 PUSH2 0x60D JUMP JUMPDEST PUSH2 0x347 JUMP JUMPDEST PUSH1 0x0 DUP2 PUSH1 0x0 DUP1 DUP3 DUP3 SLOAD PUSH2 0x110 SWAP2 SWAP1 PUSH2 0x690 JUMP JUMPDEST SWAP1 SWAP2 SSTORE POP POP PUSH1 0x40 DUP1 MLOAD PUSH1 0x80 DUP1 DUP3 MSTORE PUSH1 0x4 SWAP1 DUP3 ADD MSTORE PUSH4 0x4E6F6E65 PUSH1 0xE0 SHL PUSH1 0xA0 DUP3 ADD MSTORE PUSH1 0xC0 PUSH1 0x20 DUP3 ADD DUP2 SWAP1 MSTORE PUSH1 0xF SWAP1 DUP3 ADD MSTORE PUSH15 0x746872656540676D61696C2E636F6D PUSH1 0x88 SHL PUSH1 0xE0 DUP3 ADD MSTORE SWAP1 DUP2 ADD DUP4 SWAP1 MSTORE TIMESTAMP PUSH1 0x60 DUP3 ADD MSTORE PUSH32 0x21C7D11C3D49B4D4060A66592C507EB89D6F5BC9FC9478162DD9DAFC5C41672A SWAP1 PUSH2 0x100 ADD PUSH1 0x40 MLOAD DUP1 SWAP2 SUB SWAP1 LOG1 POP PUSH1 0x1 SWAP2 SWAP1 POP JUMP JUMPDEST PUSH1 0x0 DUP1 PUSH1 0x1 PUSH1 0x40 MLOAD PUSH2 0x1B7 SWAP1 PUSH5 0x195B585A5B PUSH1 0xDA SHL DUP2 MSTORE PUSH1 0x5 ADD SWAP1 JUMP JUMPDEST SWAP1 DUP2 MSTORE PUSH1 0x40 MLOAD SWAP1 DUP2 SWAP1 SUB PUSH1 0x20 ADD SWAP1 KECCAK256 SSTORE POP PUSH1 0x1 SWAP2 SWAP1 POP JUMP JUMPDEST PUSH1 0x0 PUSH1 0x1 DUP3 PUSH1 0x40 MLOAD PUSH2 0x1E1 SWAP2 SWAP1 PUSH2 0x6A9 JUMP JUMPDEST SWAP1 DUP2 MSTORE PUSH1 0x20 ADD PUSH1 0x40 MLOAD DUP1 SWAP2 SUB SWAP1 KECCAK256 SLOAD SWAP1 POP SWAP2 SWAP1 POP JUMP JUMPDEST PUSH1 0x2 DUP2 DUP2 SLOAD DUP2 LT PUSH2 0x207 JUMPI PUSH1 0x0 DUP1 REVERT JUMPDEST SWAP1 PUSH1 0x0 MSTORE PUSH1 0x20 PUSH1 0x0 KECCAK256 SWAP1 PUSH1 0x4 MUL ADD PUSH1 0x0 SWAP2 POP SWAP1 POP DUP1 PUSH1 0x0 ADD DUP1 SLOAD PUSH2 0x22A SWAP1 PUSH2 0x6C5 JUMP JUMPDEST DUP1 PUSH1 0x1F ADD PUSH1 0x20 DUP1 SWAP2 DIV MUL PUSH1 0x20 ADD PUSH1 0x40 MLOAD SWAP1 DUP2 ADD PUSH1 0x40 MSTORE DUP1 SWAP3 SWAP2 SWAP1 DUP2 DUP2 MSTORE PUSH1 0x20 ADD DUP3 DUP1 SLOAD PUSH2 0x256 SWAP1 PUSH2 0x6C5 JUMP JUMPDEST DUP1 ISZERO PUSH2 0x2A3 JUMPI DUP1 PUSH1 0x1F LT PUSH2 0x278 JUMPI PUSH2 0x100 DUP1 DUP4 SLOAD DIV MUL DUP4 MSTORE SWAP2 PUSH1 0x20 ADD SWAP2 PUSH2 0x2A3 JUMP JUMPDEST DUP3 ADD SWAP2 SWAP1 PUSH1 0x0 MSTORE PUSH1 0x20 PUSH1 0x0 KECCAK256 SWAP1 JUMPDEST DUP2 SLOAD DUP2 MSTORE SWAP1 PUSH1 0x1 ADD SWAP1 PUSH1 0x20 ADD DUP1 DUP4 GT PUSH2 0x286 JUMPI DUP3 SWAP1 SUB PUSH1 0x1F AND DUP3 ADD SWAP2 JUMPDEST POP POP POP POP POP SWAP1 DUP1 PUSH1 0x1 ADD DUP1 SLOAD PUSH2 0x2B8 SWAP1 PUSH2 0x6C5 JUMP JUMPDEST DUP1 PUSH1 0x1F ADD PUSH1 0x20 DUP1 SWAP2 DIV MUL PUSH1 0x20 ADD PUSH1 0x40 MLOAD SWAP1 DUP2 ADD PUSH1 0x40 MSTORE DUP1 SWAP3 SWAP2 SWAP1 DUP2 DUP2 MSTORE PUSH1 0x20 ADD DUP3 DUP1 SLOAD PUSH2 0x2E4 SWAP1 PUSH2 0x6C5 JUMP JUMPDEST DUP1 ISZERO PUSH2 0x331 JUMPI DUP1 PUSH1 0x1F LT PUSH2 0x306 JUMPI PUSH2 0x100 DUP1 DUP4 SLOAD DIV MUL DUP4 MSTORE SWAP2 PUSH1 0x20 ADD SWAP2 PUSH2 0x331 JUMP JUMPDEST DUP3 ADD SWAP2 SWAP1 PUSH1 0x0 MSTORE PUSH1 0x20 PUSH1 0x0 KECCAK256 SWAP1 JUMPDEST DUP2 SLOAD DUP2 MSTORE SWAP1 PUSH1 0x1 ADD SWAP1 PUSH1 0x20 ADD DUP1 DUP4 GT PUSH2 0x314 JUMPI DUP3 SWAP1 SUB PUSH1 0x1F AND DUP3 ADD SWAP2 JUMPDEST POP POP POP POP POP SWAP1 DUP1 PUSH1 0x2 ADD SLOAD SWAP1 DUP1 PUSH1 0x3 ADD SLOAD SWAP1 POP DUP5 JUMP JUMPDEST PUSH1 0x0 DUP2 PUSH1 0x1 DUP5 PUSH1 0x40 MLOAD PUSH2 0x35A SWAP2 SWAP1 PUSH2 0x6A9 JUMP JUMPDEST SWAP1 DUP2 MSTORE PUSH1 0x20 ADD PUSH1 0x40 MLOAD DUP1 SWAP2 SUB SWAP1 KECCAK256 PUSH1 0x0 DUP3 DUP3 SLOAD PUSH2 0x377 SWAP2 SWAP1 PUSH2 0x690 JUMP JUMPDEST SWAP3 POP POP DUP2 SWAP1 SSTORE POP DUP2 PUSH1 0x1 DUP6 PUSH1 0x40 MLOAD PUSH2 0x38F SWAP2 SWAP1 PUSH2 0x6A9 JUMP JUMPDEST SWAP1 DUP2 MSTORE PUSH1 0x20 ADD PUSH1 0x40 MLOAD DUP1 SWAP2 SUB SWAP1 KECCAK256 PUSH1 0x0 DUP3 DUP3 SLOAD PUSH2 0x3AC SWAP2 SWAP1 PUSH2 0x6FF JUMP JUMPDEST SWAP1 SWAP2 SSTORE POP POP PUSH1 0x40 DUP1 MLOAD PUSH1 0x80 DUP2 ADD DUP3 MSTORE DUP6 DUP2 MSTORE PUSH1 0x20 DUP2 ADD DUP6 SWAP1 MSTORE SWAP1 DUP2 ADD DUP4 SWAP1 MSTORE TIMESTAMP PUSH1 0x60 DUP3 ADD MSTORE PUSH1 0x2 DUP1 SLOAD PUSH1 0x1 DUP2 ADD DUP3 SSTORE PUSH1 0x0 SWAP2 SWAP1 SWAP2 MSTORE DUP2 MLOAD DUP3 SWAP2 PUSH1 0x4 MUL PUSH32 0x405787FA12A823E0F2B7631CC41B3BA8828B3321CA811111FA75CD3AA3BB5ACE ADD SWAP1 DUP2 SWAP1 PUSH2 0x417 SWAP1 DUP3 PUSH2 0x761 JUMP JUMPDEST POP PUSH1 0x20 DUP3 ADD MLOAD PUSH1 0x1 DUP3 ADD SWAP1 PUSH2 0x42C SWAP1 DUP3 PUSH2 0x761 JUMP JUMPDEST POP PUSH1 0x40 DUP3 ADD MLOAD DUP2 PUSH1 0x2 ADD SSTORE PUSH1 0x60 DUP3 ADD MLOAD DUP2 PUSH1 0x3 ADD SSTORE POP POP PUSH32 0x21C7D11C3D49B4D4060A66592C507EB89D6F5BC9FC9478162DD9DAFC5C41672A DUP6 DUP6 DUP6 TIMESTAMP PUSH1 0x40 MLOAD PUSH2 0x478 SWAP5 SWAP4 SWAP3 SWAP2 SWAP1 PUSH2 0x5D4 JUMP JUMPDEST PUSH1 0x40 MLOAD DUP1 SWAP2 SUB SWAP1 LOG1 POP PUSH1 0x1 SWAP5 SWAP4 POP POP POP POP JUMP JUMPDEST PUSH1 0x0 PUSH1 0x20 DUP3 DUP5 SUB SLT ISZERO PUSH2 0x49D JUMPI PUSH1 0x0 DUP1 REVERT JUMPDEST POP CALLDATALOAD SWAP2 SWAP1 POP JUMP JUMPDEST PUSH4 0x4E487B71 PUSH1 0xE0 SHL PUSH1 0x0 MSTORE PUSH1 0x41 PUSH1 0x4 MSTORE PUSH1 0x24 PUSH1 0x0 REVERT JUMPDEST PUSH1 0x0 DUP3 PUSH1 0x1F DUP4 ADD SLT PUSH2 0x4CB JUMPI PUSH1 0x0 DUP1 REVERT JUMPDEST DUP2 CALLDATALOAD PUSH8 0xFFFFFFFFFFFFFFFF DUP1 DUP3 GT ISZERO PUSH2 0x4E6 JUMPI PUSH2 0x4E6 PUSH2 0x4A4 JUMP JUMPDEST PUSH1 0x40 MLOAD PUSH1 0x1F DUP4 ADD PUSH1 0x1F NOT SWAP1 DUP2 AND PUSH1 0x3F ADD AND DUP2 ADD SWAP1 DUP3 DUP3 GT DUP2 DUP4 LT OR ISZERO PUSH2 0x50E JUMPI PUSH2 0x50E PUSH2 0x4A4 JUMP JUMPDEST DUP2 PUSH1 0x40 MSTORE DUP4 DUP2 MSTORE DUP7 PUSH1 0x20 DUP6 DUP9 ADD ADD GT ISZERO PUSH2 0x527 JUMPI PUSH1 0x0 DUP1 REVERT JUMPDEST DUP4 PUSH1 0x20 DUP8 ADD PUSH1 0x20 DUP4 ADD CALLDATACOPY PUSH1 0x0 PUSH1 0x20 DUP6 DUP4 ADD ADD MSTORE DUP1 SWAP5 POP POP POP POP POP SWAP3 SWAP2 POP POP JUMP JUMPDEST PUSH1 0x0 PUSH1 0x20 DUP3 DUP5 SUB SLT ISZERO PUSH2 0x559 JUMPI PUSH1 0x0 DUP1 REVERT JUMPDEST DUP2 CALLDATALOAD PUSH8 0xFFFFFFFFFFFFFFFF DUP2 GT ISZERO PUSH2 0x570 JUMPI PUSH1 0x0 DUP1 REVERT JUMPDEST PUSH2 0x57C DUP5 DUP3 DUP6 ADD PUSH2 0x4BA JUMP JUMPDEST SWAP5 SWAP4 POP POP POP POP JUMP JUMPDEST PUSH1 0x0 JUMPDEST DUP4 DUP2 LT ISZERO PUSH2 0x59F JUMPI DUP2 DUP2 ADD MLOAD DUP4 DUP3 ADD MSTORE PUSH1 0x20 ADD PUSH2 0x587 JUMP JUMPDEST POP POP PUSH1 0x0 SWAP2 ADD MSTORE JUMP JUMPDEST PUSH1 0x0 DUP2 MLOAD DUP1 DUP5 MSTORE PUSH2 0x5C0 DUP2 PUSH1 0x20 DUP7 ADD PUSH1 0x20 DUP7 ADD PUSH2 0x584 JUMP JUMPDEST PUSH1 0x1F ADD PUSH1 0x1F NOT AND SWAP3 SWAP1 SWAP3 ADD PUSH1 0x20 ADD SWAP3 SWAP2 POP POP JUMP JUMPDEST PUSH1 0x80 DUP2 MSTORE PUSH1 0x0 PUSH2 0x5E7 PUSH1 0x80 DUP4 ADD DUP8 PUSH2 0x5A8 JUMP JUMPDEST DUP3 DUP2 SUB PUSH1 0x20 DUP5 ADD MSTORE PUSH2 0x5F9 DUP2 DUP8 PUSH2 0x5A8 JUMP JUMPDEST PUSH1 0x40 DUP5 ADD SWAP6 SWAP1 SWAP6 MSTORE POP POP PUSH1 0x60 ADD MSTORE SWAP3 SWAP2 POP POP JUMP JUMPDEST PUSH1 0x0 DUP1 PUSH1 0x0 PUSH1 0x60 DUP5 DUP7 SUB SLT ISZERO PUSH2 0x622 JUMPI PUSH1 0x0 DUP1 REVERT JUMPDEST DUP4 CALLDATALOAD PUSH8 0xFFFFFFFFFFFFFFFF DUP1 DUP3 GT ISZERO PUSH2 0x63A JUMPI PUSH1 0x0 DUP1 REVERT JUMPDEST PUSH2 0x646 DUP8 DUP4 DUP9 ADD PUSH2 0x4BA JUMP JUMPDEST SWAP5 POP PUSH1 0x20 DUP7 ADD CALLDATALOAD SWAP2 POP DUP1 DUP3 GT ISZERO PUSH2 0x65C JUMPI PUSH1 0x0 DUP1 REVERT JUMPDEST POP PUSH2 0x669 DUP7 DUP3 DUP8 ADD PUSH2 0x4BA JUMP JUMPDEST SWAP3 POP POP PUSH1 0x40 DUP5 ADD CALLDATALOAD SWAP1 POP SWAP3 POP SWAP3 POP SWAP3 JUMP JUMPDEST PUSH4 0x4E487B71 PUSH1 0xE0 SHL PUSH1 0x0 MSTORE PUSH1 0x11 PUSH1 0x4 MSTORE PUSH1 0x24 PUSH1 0x0 REVERT JUMPDEST DUP1 DUP3 ADD DUP1 DUP3 GT ISZERO PUSH2 0x6A3 JUMPI PUSH2 0x6A3 PUSH2 0x67A JUMP JUMPDEST SWAP3 SWAP2 POP POP JUMP JUMPDEST PUSH1 0x0 DUP3 MLOAD PUSH2 0x6BB DUP2 DUP5 PUSH1 0x20 DUP8 ADD PUSH2 0x584 JUMP JUMPDEST SWAP2 SWAP1 SWAP2 ADD SWAP3 SWAP2 POP POP JUMP JUMPDEST PUSH1 0x1 DUP2 DUP2 SHR SWAP1 DUP3 AND DUP1 PUSH2 0x6D9 JUMPI PUSH1 0x7F DUP3 AND SWAP2 POP JUMPDEST PUSH1 0x20 DUP3 LT DUP2 SUB PUSH2 0x6F9 JUMPI PUSH4 0x4E487B71 PUSH1 0xE0 SHL PUSH1 0x0 MSTORE PUSH1 0x22 PUSH1 0x4 MSTORE PUSH1 0x24 PUSH1 0x0 REVERT JUMPDEST POP SWAP2 SWAP1 POP JUMP JUMPDEST DUP2 DUP2 SUB DUP2 DUP2 GT ISZERO PUSH2 0x6A3 JUMPI PUSH2 0x6A3 PUSH2 0x67A JUMP JUMPDEST PUSH1 0x1F DUP3 GT ISZERO PUSH2 0x75C JUMPI PUSH1 0x0 DUP2 DUP2 MSTORE PUSH1 0x20 DUP2 KECCAK256 PUSH1 0x1F DUP6 ADD PUSH1 0x5 SHR DUP2 ADD PUSH1 0x20 DUP7 LT ISZERO PUSH2 0x739 JUMPI POP DUP1 JUMPDEST PUSH1 0x1F DUP6 ADD PUSH1 0x5 SHR DUP3 ADD SWAP2 POP JUMPDEST DUP2 DUP2 LT ISZERO PUSH2 0x758 JUMPI DUP3 DUP2 SSTORE PUSH1 0x1 ADD PUSH2 0x745 JUMP JUMPDEST POP POP POP JUMPDEST POP POP POP JUMP JUMPDEST DUP2 MLOAD PUSH8 0xFFFFFFFFFFFFFFFF DUP2 GT ISZERO PUSH2 0x77B JUMPI PUSH2 0x77B PUSH2 0x4A4 JUMP JUMPDEST PUSH2 0x78F DUP2 PUSH2 0x789 DUP5 SLOAD PUSH2 0x6C5 JUMP JUMPDEST DUP5 PUSH2 0x712 JUMP JUMPDEST PUSH1 0x20 DUP1 PUSH1 0x1F DUP4 GT PUSH1 0x1 DUP2 EQ PUSH2 0x7C4 JUMPI PUSH1 0x0 DUP5 ISZERO PUSH2 0x7AC JUMPI POP DUP6 DUP4 ADD MLOAD JUMPDEST PUSH1 0x0 NOT PUSH1 0x3 DUP7 SWAP1 SHL SHR NOT AND PUSH1 0x1 DUP6 SWAP1 SHL OR DUP6 SSTORE PUSH2 0x758 JUMP JUMPDEST PUSH1 0x0 DUP6 DUP2 MSTORE PUSH1 0x20 DUP2 KECCAK256 PUSH1 0x1F NOT DUP7 AND SWAP2 JUMPDEST DUP3 DUP2 LT ISZERO PUSH2 0x7F3 JUMPI DUP9 DUP7 ADD MLOAD DUP3 SSTORE SWAP5 DUP5 ADD SWAP5 PUSH1 0x1 SWAP1 SWAP2 ADD SWAP1 DUP5 ADD PUSH2 0x7D4 JUMP JUMPDEST POP DUP6 DUP3 LT ISZERO PUSH2 0x811 JUMPI DUP8 DUP6 ADD MLOAD PUSH1 0x0 NOT PUSH1 0x3 DUP9 SWAP1 SHL PUSH1 0xF8 AND SHR NOT AND DUP2 SSTORE JUMPDEST POP POP POP POP POP PUSH1 0x1 SWAP1 DUP2 SHL ADD SWAP1 SSTORE POP JUMP INVALID LOG2 PUSH5 0x6970667358 0x22 SLT KECCAK256 PUSH27 0xC2BCB97A97412389A708AA78144C4672CE6BC77C637A938CCBEAB4 0xD2 0x2C DUP14 SWAP10 PUSH5 0x736F6C6343 STOP ADDMOD ISZERO STOP CALLER ","sha1":"1692b53661c924327bbfe3feb703b7d4ccfb8862","source":"// SPDX-License-Identifier: MIT\n\npragma solidity ^0.8.0;\n\ncontract SuperCoin {\n    uint256 internal issuedCoins = 2000;\n    mapping(string => uint256) internal balances;\n\n    constructor(){\n        balances[\"three@gmail.com\"] = issuedCoins;\n    }\n\n    struct Transaction {\n        string sender;\n        string receiver;\n        uint256 amount;\n        uint256 timestamp;\n    }\n\n    Transaction[] public transactions;\n\n    event Transfer(string sender, string recipient, uint256 amount, uint256 t);\n\n    function totalCoins() public view returns (uint256){\n        return issuedCoins;\n    }\n\n\n    function addCoins(uint256 coins) public returns (bool){\n        issuedCoins += coins;\n        emit Transfer(\"None\", \"three@gmail.com\", coins, block.timestamp);\n        return true;\n    }\n\n    function getBalance(string memory email) public view returns (uint256){\n        return balances[email];\n    }\n\n    function createAccount(string memory email) public returns (bool){\n        balances[\"email\"] = 0;\n        return true;\n    }\n\n    function transfer(string memory sender, string memory recipient, uint256 amount) public returns (bool){\n        balances[recipient] += amount;\n        balances[sender] -= amount;\n        Transaction memory newTransaction = Transaction({\n            sender: sender,\n            receiver: recipient,\n            amount: amount,\n            timestamp: block.timestamp\n        });\n        transactions.push(newTransaction);\n        emit Transfer(sender, recipient, amount, block.timestamp);\n        return true;\n    }\n\n}","sourcePath":"contracts/SuperCoin.sol","type":"contract","deployment":{"address":"0x7cf0dACD561700C1EC99B55b7A53c94e93C216A1","chainid":"80001","blockHeight":39215122}}