{"bytecode":"60806040526107d060005534801561001657600080fd5b506000546040516e746872656540676d61696c2e636f6d60881b8152600190600f019081526040519081900360200190205561084d806100576000396000f3fe608060405234801561001057600080fd5b50600436106100625760003560e01c80630173e3f414610067578063298daf5b1461008f57806332454dbb146100a25780633a51d246146100b45780639ace38c2146100c75780639b80b050146100ea575b600080fd5b61007a610075366004610481565b6100fd565b60405190151581526020015b60405180910390f35b61007a61009d36600461053d565b61019a565b6000545b604051908152602001610086565b6100a66100c236600461053d565b6101c5565b6100da6100d5366004610481565b6101ed565b60405161008694939291906105ca565b61007a6100f8366004610603565b61033d565b6000816000808282546101109190610686565b9091555050604080516080808252600490820152634e6f6e6560e01b60a082015260c060208201819052600f908201526e746872656540676d61696c2e636f6d60881b60e08201529081018390524260608201527f21c7d11c3d49b4d4060a66592c507eb89d6f5bc9fc9478162dd9dafc5c41672a906101000160405180910390a1506001919050565b6000806001836040516101ad919061069f565b90815260405190819003602001902055506001919050565b60006001826040516101d7919061069f565b9081526020016040518091039020549050919050565b600281815481106101fd57600080fd5b9060005260206000209060040201600091509050806000018054610220906106bb565b80601f016020809104026020016040519081016040528092919081815260200182805461024c906106bb565b80156102995780601f1061026e57610100808354040283529160200191610299565b820191906000526020600020905b81548152906001019060200180831161027c57829003601f168201915b5050505050908060010180546102ae906106bb565b80601f01602080910402602001604051908101604052809291908181526020018280546102da906106bb565b80156103275780601f106102fc57610100808354040283529160200191610327565b820191906000526020600020905b81548152906001019060200180831161030a57829003601f168201915b5050505050908060020154908060030154905084565b600081600184604051610350919061069f565b9081526020016040518091039020600082825461036d9190610686565b9250508190555081600185604051610385919061069f565b908152602001604051809103902060008282546103a291906106f5565b9091555050604080516080810182528581526020810185905290810183905242606082015260028054600181018255600091909152815182916004027f405787fa12a823e0f2b7631cc41b3ba8828b3321ca811111fa75cd3aa3bb5ace0190819061040d9082610757565b50602082015160018201906104229082610757565b50604082015181600201556060820151816003015550507f21c7d11c3d49b4d4060a66592c507eb89d6f5bc9fc9478162dd9dafc5c41672a8585854260405161046e94939291906105ca565b60405180910390a1506001949350505050565b60006020828403121561049357600080fd5b5035919050565b634e487b7160e01b600052604160045260246000fd5b600082601f8301126104c157600080fd5b813567ffffffffffffffff808211156104dc576104dc61049a565b604051601f8301601f19908116603f011681019082821181831017156105045761050461049a565b8160405283815286602085880101111561051d57600080fd5b836020870160208301376000602085830101528094505050505092915050565b60006020828403121561054f57600080fd5b813567ffffffffffffffff81111561056657600080fd5b610572848285016104b0565b949350505050565b60005b8381101561059557818101518382015260200161057d565b50506000910152565b600081518084526105b681602086016020860161057a565b601f01601f19169290920160200192915050565b6080815260006105dd608083018761059e565b82810360208401526105ef818761059e565b604084019590955250506060015292915050565b60008060006060848603121561061857600080fd5b833567ffffffffffffffff8082111561063057600080fd5b61063c878388016104b0565b9450602086013591508082111561065257600080fd5b5061065f868287016104b0565b925050604084013590509250925092565b634e487b7160e01b600052601160045260246000fd5b8082018082111561069957610699610670565b92915050565b600082516106b181846020870161057a565b9190910192915050565b600181811c908216806106cf57607f821691505b6020821081036106ef57634e487b7160e01b600052602260045260246000fd5b50919050565b8181038181111561069957610699610670565b601f82111561075257600081815260208120601f850160051c8101602086101561072f5750805b601f850160051c820191505b8181101561074e5782815560010161073b565b5050505b505050565b815167ffffffffffffffff8111156107715761077161049a565b6107858161077f84546106bb565b84610708565b602080601f8311600181146107ba57600084156107a25750858301515b600019600386901b1c1916600185901b17855561074e565b600085815260208120601f198616915b828110156107e9578886015182559484019460019091019084016107ca565b50858210156108075787850151600019600388901b60f8161c191681555b5050505050600190811b0190555056fea2646970667358221220430a084989632323fa417eee5bf99aa604846a663a2388c6580380316735f0bb64736f6c63430008150033","bytecodeSha1":"bdd150456ee9c797fb099053c9cb306e10d55c81","type":"contract","abi":[{"inputs":[],"stateMutability":"nonpayable","type":"constructor","name":"constructor"},{"anonymous":false,"inputs":[{"indexed":false,"internalType":"string","name":"sender","type":"string"},{"indexed":false,"internalType":"string","name":"recipient","type":"string"},{"indexed":false,"internalType":"uint256","name":"amount","type":"uint256"},{"indexed":false,"internalType":"uint256","name":"t","type":"uint256"}],"name":"Transfer","type":"event"},{"inputs":[{"internalType":"uint256","name":"coins","type":"uint256"}],"name":"addCoins","outputs":[{"internalType":"bool","name":"","type":"bool"}],"stateMutability":"nonpayable","type":"function"},{"inputs":[{"internalType":"string","name":"email","type":"string"}],"name":"createAccount","outputs":[{"internalType":"bool","name":"","type":"bool"}],"stateMutability":"nonpayable","type":"function"},{"inputs":[{"internalType":"string","name":"email","type":"string"}],"name":"getBalance","outputs":[{"internalType":"uint256","name":"","type":"uint256"}],"stateMutability":"view","type":"function"},{"inputs":[],"name":"totalCoins","outputs":[{"internalType":"uint256","name":"","type":"uint256"}],"stateMutability":"view","type":"function"},{"inputs":[{"internalType":"uint256","name":"","type":"uint256"}],"name":"transactions","outputs":[{"internalType":"string","name":"sender","type":"string"},{"internalType":"string","name":"receiver","type":"string"},{"internalType":"uint256","name":"amount","type":"uint256"},{"internalType":"uint256","name":"timestamp","type":"uint256"}],"stateMutability":"view","type":"function"},{"inputs":[{"internalType":"string","name":"sender","type":"string"},{"internalType":"string","name":"recipient","type":"string"},{"internalType":"uint256","name":"amount","type":"uint256"}],"name":"transfer","outputs":[{"internalType":"bool","name":"","type":"bool"}],"stateMutability":"nonpayable","type":"function"}],"compiler":{"version":"0.8.21+commit.d9974bed","evm_version":"istanbul","optimizer":{"enabled":true,"runs":200}},"contractName":"SuperCoin","language":"Solidity","natspec":{"methods":{},"kind":"dev","version":1},"opcodes":"PUSH1 0x80 PUSH1 0x40 MSTORE CALLVALUE DUP1 ISZERO PUSH2 0x10 JUMPI PUSH1 0x0 DUP1 REVERT JUMPDEST POP PUSH1 0x4 CALLDATASIZE LT PUSH2 0x62 JUMPI PUSH1 0x0 CALLDATALOAD PUSH1 0xE0 SHR DUP1 PUSH4 0x173E3F4 EQ PUSH2 0x67 JUMPI DUP1 PUSH4 0x298DAF5B EQ PUSH2 0x8F JUMPI DUP1 PUSH4 0x32454DBB EQ PUSH2 0xA2 JUMPI DUP1 PUSH4 0x3A51D246 EQ PUSH2 0xB4 JUMPI DUP1 PUSH4 0x9ACE38C2 EQ PUSH2 0xC7 JUMPI DUP1 PUSH4 0x9B80B050 EQ PUSH2 0xEA JUMPI JUMPDEST PUSH1 0x0 DUP1 REVERT JUMPDEST PUSH2 0x7A PUSH2 0x75 CALLDATASIZE PUSH1 0x4 PUSH2 0x481 JUMP JUMPDEST PUSH2 0xFD JUMP JUMPDEST PUSH1 0x40 MLOAD SWAP1 ISZERO ISZERO DUP2 MSTORE PUSH1 0x20 ADD JUMPDEST PUSH1 0x40 MLOAD DUP1 SWAP2 SUB SWAP1 RETURN JUMPDEST PUSH2 0x7A PUSH2 0x9D CALLDATASIZE PUSH1 0x4 PUSH2 0x53D JUMP JUMPDEST PUSH2 0x19A JUMP JUMPDEST PUSH1 0x0 SLOAD JUMPDEST PUSH1 0x40 MLOAD SWAP1 DUP2 MSTORE PUSH1 0x20 ADD PUSH2 0x86 JUMP JUMPDEST PUSH2 0xA6 PUSH2 0xC2 CALLDATASIZE PUSH1 0x4 PUSH2 0x53D JUMP JUMPDEST PUSH2 0x1C5 JUMP JUMPDEST PUSH2 0xDA PUSH2 0xD5 CALLDATASIZE PUSH1 0x4 PUSH2 0x481 JUMP JUMPDEST PUSH2 0x1ED JUMP JUMPDEST PUSH1 0x40 MLOAD PUSH2 0x86 SWAP5 SWAP4 SWAP3 SWAP2 SWAP1 PUSH2 0x5CA JUMP JUMPDEST PUSH2 0x7A PUSH2 0xF8 CALLDATASIZE PUSH1 0x4 PUSH2 0x603 JUMP JUMPDEST PUSH2 0x33D JUMP JUMPDEST PUSH1 0x0 DUP2 PUSH1 0x0 DUP1 DUP3 DUP3 SLOAD PUSH2 0x110 SWAP2 SWAP1 PUSH2 0x686 JUMP JUMPDEST SWAP1 SWAP2 SSTORE POP POP PUSH1 0x40 DUP1 MLOAD PUSH1 0x80 DUP1 DUP3 MSTORE PUSH1 0x4 SWAP1 DUP3 ADD MSTORE PUSH4 0x4E6F6E65 PUSH1 0xE0 SHL PUSH1 0xA0 DUP3 ADD MSTORE PUSH1 0xC0 PUSH1 0x20 DUP3 ADD DUP2 SWAP1 MSTORE PUSH1 0xF SWAP1 DUP3 ADD MSTORE PUSH15 0x746872656540676D61696C2E636F6D PUSH1 0x88 SHL PUSH1 0xE0 DUP3 ADD MSTORE SWAP1 DUP2 ADD DUP4 SWAP1 MSTORE TIMESTAMP PUSH1 0x60 DUP3 ADD MSTORE PUSH32 0x21C7D11C3D49B4D4060A66592C507EB89D6F5BC9FC9478162DD9DAFC5C41672A SWAP1 PUSH2 0x100 ADD PUSH1 0x40 MLOAD DUP1 SWAP2 SUB SWAP1 LOG1 POP PUSH1 0x1 SWAP2 SWAP1 POP JUMP JUMPDEST PUSH1 0x0 DUP1 PUSH1 0x1 DUP4 PUSH1 0x40 MLOAD PUSH2 0x1AD SWAP2 SWAP1 PUSH2 0x69F JUMP JUMPDEST SWAP1 DUP2 MSTORE PUSH1 0x40 MLOAD SWAP1 DUP2 SWAP1 SUB PUSH1 0x20 ADD SWAP1 KECCAK256 SSTORE POP PUSH1 0x1 SWAP2 SWAP1 POP JUMP JUMPDEST PUSH1 0x0 PUSH1 0x1 DUP3 PUSH1 0x40 MLOAD PUSH2 0x1D7 SWAP2 SWAP1 PUSH2 0x69F JUMP JUMPDEST SWAP1 DUP2 MSTORE PUSH1 0x20 ADD PUSH1 0x40 MLOAD DUP1 SWAP2 SUB SWAP1 KECCAK256 SLOAD SWAP1 POP SWAP2 SWAP1 POP JUMP JUMPDEST PUSH1 0x2 DUP2 DUP2 SLOAD DUP2 LT PUSH2 0x1FD JUMPI PUSH1 0x0 DUP1 REVERT JUMPDEST SWAP1 PUSH1 0x0 MSTORE PUSH1 0x20 PUSH1 0x0 KECCAK256 SWAP1 PUSH1 0x4 MUL ADD PUSH1 0x0 SWAP2 POP SWAP1 POP DUP1 PUSH1 0x0 ADD DUP1 SLOAD PUSH2 0x220 SWAP1 PUSH2 0x6BB JUMP JUMPDEST DUP1 PUSH1 0x1F ADD PUSH1 0x20 DUP1 SWAP2 DIV MUL PUSH1 0x20 ADD PUSH1 0x40 MLOAD SWAP1 DUP2 ADD PUSH1 0x40 MSTORE DUP1 SWAP3 SWAP2 SWAP1 DUP2 DUP2 MSTORE PUSH1 0x20 ADD DUP3 DUP1 SLOAD PUSH2 0x24C SWAP1 PUSH2 0x6BB JUMP JUMPDEST DUP1 ISZERO PUSH2 0x299 JUMPI DUP1 PUSH1 0x1F LT PUSH2 0x26E JUMPI PUSH2 0x100 DUP1 DUP4 SLOAD DIV MUL DUP4 MSTORE SWAP2 PUSH1 0x20 ADD SWAP2 PUSH2 0x299 JUMP JUMPDEST DUP3 ADD SWAP2 SWAP1 PUSH1 0x0 MSTORE PUSH1 0x20 PUSH1 0x0 KECCAK256 SWAP1 JUMPDEST DUP2 SLOAD DUP2 MSTORE SWAP1 PUSH1 0x1 ADD SWAP1 PUSH1 0x20 ADD DUP1 DUP4 GT PUSH2 0x27C JUMPI DUP3 SWAP1 SUB PUSH1 0x1F AND DUP3 ADD SWAP2 JUMPDEST POP POP POP POP POP SWAP1 DUP1 PUSH1 0x1 ADD DUP1 SLOAD PUSH2 0x2AE SWAP1 PUSH2 0x6BB JUMP JUMPDEST DUP1 PUSH1 0x1F ADD PUSH1 0x20 DUP1 SWAP2 DIV MUL PUSH1 0x20 ADD PUSH1 0x40 MLOAD SWAP1 DUP2 ADD PUSH1 0x40 MSTORE DUP1 SWAP3 SWAP2 SWAP1 DUP2 DUP2 MSTORE PUSH1 0x20 ADD DUP3 DUP1 SLOAD PUSH2 0x2DA SWAP1 PUSH2 0x6BB JUMP JUMPDEST DUP1 ISZERO PUSH2 0x327 JUMPI DUP1 PUSH1 0x1F LT PUSH2 0x2FC JUMPI PUSH2 0x100 DUP1 DUP4 SLOAD DIV MUL DUP4 MSTORE SWAP2 PUSH1 0x20 ADD SWAP2 PUSH2 0x327 JUMP JUMPDEST DUP3 ADD SWAP2 SWAP1 PUSH1 0x0 MSTORE PUSH1 0x20 PUSH1 0x0 KECCAK256 SWAP1 JUMPDEST DUP2 SLOAD DUP2 MSTORE SWAP1 PUSH1 0x1 ADD SWAP1 PUSH1 0x20 ADD DUP1 DUP4 GT PUSH2 0x30A JUMPI DUP3 SWAP1 SUB PUSH1 0x1F AND DUP3 ADD SWAP2 JUMPDEST POP POP POP POP POP SWAP1 DUP1 PUSH1 0x2 ADD SLOAD SWAP1 DUP1 PUSH1 0x3 ADD SLOAD SWAP1 POP DUP5 JUMP JUMPDEST PUSH1 0x0 DUP2 PUSH1 0x1 DUP5 PUSH1 0x40 MLOAD PUSH2 0x350 SWAP2 SWAP1 PUSH2 0x69F JUMP JUMPDEST SWAP1 DUP2 MSTORE PUSH1 0x20 ADD PUSH1 0x40 MLOAD DUP1 SWAP2 SUB SWAP1 KECCAK256 PUSH1 0x0 DUP3 DUP3 SLOAD PUSH2 0x36D SWAP2 SWAP1 PUSH2 0x686 JUMP JUMPDEST SWAP3 POP POP DUP2 SWAP1 SSTORE POP DUP2 PUSH1 0x1 DUP6 PUSH1 0x40 MLOAD PUSH2 0x385 SWAP2 SWAP1 PUSH2 0x69F JUMP JUMPDEST SWAP1 DUP2 MSTORE PUSH1 0x20 ADD PUSH1 0x40 MLOAD DUP1 SWAP2 SUB SWAP1 KECCAK256 PUSH1 0x0 DUP3 DUP3 SLOAD PUSH2 0x3A2 SWAP2 SWAP1 PUSH2 0x6F5 JUMP JUMPDEST SWAP1 SWAP2 SSTORE POP POP PUSH1 0x40 DUP1 MLOAD PUSH1 0x80 DUP2 ADD DUP3 MSTORE DUP6 DUP2 MSTORE PUSH1 0x20 DUP2 ADD DUP6 SWAP1 MSTORE SWAP1 DUP2 ADD DUP4 SWAP1 MSTORE TIMESTAMP PUSH1 0x60 DUP3 ADD MSTORE PUSH1 0x2 DUP1 SLOAD PUSH1 0x1 DUP2 ADD DUP3 SSTORE PUSH1 0x0 SWAP2 SWAP1 SWAP2 MSTORE DUP2 MLOAD DUP3 SWAP2 PUSH1 0x4 MUL PUSH32 0x405787FA12A823E0F2B7631CC41B3BA8828B3321CA811111FA75CD3AA3BB5ACE ADD SWAP1 DUP2 SWAP1 PUSH2 0x40D SWAP1 DUP3 PUSH2 0x757 JUMP JUMPDEST POP PUSH1 0x20 DUP3 ADD MLOAD PUSH1 0x1 DUP3 ADD SWAP1 PUSH2 0x422 SWAP1 DUP3 PUSH2 0x757 JUMP JUMPDEST POP PUSH1 0x40 DUP3 ADD MLOAD DUP2 PUSH1 0x2 ADD SSTORE PUSH1 0x60 DUP3 ADD MLOAD DUP2 PUSH1 0x3 ADD SSTORE POP POP PUSH32 0x21C7D11C3D49B4D4060A66592C507EB89D6F5BC9FC9478162DD9DAFC5C41672A DUP6 DUP6 DUP6 TIMESTAMP PUSH1 0x40 MLOAD PUSH2 0x46E SWAP5 SWAP4 SWAP3 SWAP2 SWAP1 PUSH2 0x5CA JUMP JUMPDEST PUSH1 0x40 MLOAD DUP1 SWAP2 SUB SWAP1 LOG1 POP PUSH1 0x1 SWAP5 SWAP4 POP POP POP POP JUMP JUMPDEST PUSH1 0x0 PUSH1 0x20 DUP3 DUP5 SUB SLT ISZERO PUSH2 0x493 JUMPI PUSH1 0x0 DUP1 REVERT JUMPDEST POP CALLDATALOAD SWAP2 SWAP1 POP JUMP JUMPDEST PUSH4 0x4E487B71 PUSH1 0xE0 SHL PUSH1 0x0 MSTORE PUSH1 0x41 PUSH1 0x4 MSTORE PUSH1 0x24 PUSH1 0x0 REVERT JUMPDEST PUSH1 0x0 DUP3 PUSH1 0x1F DUP4 ADD SLT PUSH2 0x4C1 JUMPI PUSH1 0x0 DUP1 REVERT JUMPDEST DUP2 CALLDATALOAD PUSH8 0xFFFFFFFFFFFFFFFF DUP1 DUP3 GT ISZERO PUSH2 0x4DC JUMPI PUSH2 0x4DC PUSH2 0x49A JUMP JUMPDEST PUSH1 0x40 MLOAD PUSH1 0x1F DUP4 ADD PUSH1 0x1F NOT SWAP1 DUP2 AND PUSH1 0x3F ADD AND DUP2 ADD SWAP1 DUP3 DUP3 GT DUP2 DUP4 LT OR ISZERO PUSH2 0x504 JUMPI PUSH2 0x504 PUSH2 0x49A JUMP JUMPDEST DUP2 PUSH1 0x40 MSTORE DUP4 DUP2 MSTORE DUP7 PUSH1 0x20 DUP6 DUP9 ADD ADD GT ISZERO PUSH2 0x51D JUMPI PUSH1 0x0 DUP1 REVERT JUMPDEST DUP4 PUSH1 0x20 DUP8 ADD PUSH1 0x20 DUP4 ADD CALLDATACOPY PUSH1 0x0 PUSH1 0x20 DUP6 DUP4 ADD ADD MSTORE DUP1 SWAP5 POP POP POP POP POP SWAP3 SWAP2 POP POP JUMP JUMPDEST PUSH1 0x0 PUSH1 0x20 DUP3 DUP5 SUB SLT ISZERO PUSH2 0x54F JUMPI PUSH1 0x0 DUP1 REVERT JUMPDEST DUP2 CALLDATALOAD PUSH8 0xFFFFFFFFFFFFFFFF DUP2 GT ISZERO PUSH2 0x566 JUMPI PUSH1 0x0 DUP1 REVERT JUMPDEST PUSH2 0x572 DUP5 DUP3 DUP6 ADD PUSH2 0x4B0 JUMP JUMPDEST SWAP5 SWAP4 POP POP POP POP JUMP JUMPDEST PUSH1 0x0 JUMPDEST DUP4 DUP2 LT ISZERO PUSH2 0x595 JUMPI DUP2 DUP2 ADD MLOAD DUP4 DUP3 ADD MSTORE PUSH1 0x20 ADD PUSH2 0x57D JUMP JUMPDEST POP POP PUSH1 0x0 SWAP2 ADD MSTORE JUMP JUMPDEST PUSH1 0x0 DUP2 MLOAD DUP1 DUP5 MSTORE PUSH2 0x5B6 DUP2 PUSH1 0x20 DUP7 ADD PUSH1 0x20 DUP7 ADD PUSH2 0x57A JUMP JUMPDEST PUSH1 0x1F ADD PUSH1 0x1F NOT AND SWAP3 SWAP1 SWAP3 ADD PUSH1 0x20 ADD SWAP3 SWAP2 POP POP JUMP JUMPDEST PUSH1 0x80 DUP2 MSTORE PUSH1 0x0 PUSH2 0x5DD PUSH1 0x80 DUP4 ADD DUP8 PUSH2 0x59E JUMP JUMPDEST DUP3 DUP2 SUB PUSH1 0x20 DUP5 ADD MSTORE PUSH2 0x5EF DUP2 DUP8 PUSH2 0x59E JUMP JUMPDEST PUSH1 0x40 DUP5 ADD SWAP6 SWAP1 SWAP6 MSTORE POP POP PUSH1 0x60 ADD MSTORE SWAP3 SWAP2 POP POP JUMP JUMPDEST PUSH1 0x0 DUP1 PUSH1 0x0 PUSH1 0x60 DUP5 DUP7 SUB SLT ISZERO PUSH2 0x618 JUMPI PUSH1 0x0 DUP1 REVERT JUMPDEST DUP4 CALLDATALOAD PUSH8 0xFFFFFFFFFFFFFFFF DUP1 DUP3 GT ISZERO PUSH2 0x630 JUMPI PUSH1 0x0 DUP1 REVERT JUMPDEST PUSH2 0x63C DUP8 DUP4 DUP9 ADD PUSH2 0x4B0 JUMP JUMPDEST SWAP5 POP PUSH1 0x20 DUP7 ADD CALLDATALOAD SWAP2 POP DUP1 DUP3 GT ISZERO PUSH2 0x652 JUMPI PUSH1 0x0 DUP1 REVERT JUMPDEST POP PUSH2 0x65F DUP7 DUP3 DUP8 ADD PUSH2 0x4B0 JUMP JUMPDEST SWAP3 POP POP PUSH1 0x40 DUP5 ADD CALLDATALOAD SWAP1 POP SWAP3 POP SWAP3 POP SWAP3 JUMP JUMPDEST PUSH4 0x4E487B71 PUSH1 0xE0 SHL PUSH1 0x0 MSTORE PUSH1 0x11 PUSH1 0x4 MSTORE PUSH1 0x24 PUSH1 0x0 REVERT JUMPDEST DUP1 DUP3 ADD DUP1 DUP3 GT ISZERO PUSH2 0x699 JUMPI PUSH2 0x699 PUSH2 0x670 JUMP JUMPDEST SWAP3 SWAP2 POP POP JUMP JUMPDEST PUSH1 0x0 DUP3 MLOAD PUSH2 0x6B1 DUP2 DUP5 PUSH1 0x20 DUP8 ADD PUSH2 0x57A JUMP JUMPDEST SWAP2 SWAP1 SWAP2 ADD SWAP3 SWAP2 POP POP JUMP JUMPDEST PUSH1 0x1 DUP2 DUP2 SHR SWAP1 DUP3 AND DUP1 PUSH2 0x6CF JUMPI PUSH1 0x7F DUP3 AND SWAP2 POP JUMPDEST PUSH1 0x20 DUP3 LT DUP2 SUB PUSH2 0x6EF JUMPI PUSH4 0x4E487B71 PUSH1 0xE0 SHL PUSH1 0x0 MSTORE PUSH1 0x22 PUSH1 0x4 MSTORE PUSH1 0x24 PUSH1 0x0 REVERT JUMPDEST POP SWAP2 SWAP1 POP JUMP JUMPDEST DUP2 DUP2 SUB DUP2 DUP2 GT ISZERO PUSH2 0x699 JUMPI PUSH2 0x699 PUSH2 0x670 JUMP JUMPDEST PUSH1 0x1F DUP3 GT ISZERO PUSH2 0x752 JUMPI PUSH1 0x0 DUP2 DUP2 MSTORE PUSH1 0x20 DUP2 KECCAK256 PUSH1 0x1F DUP6 ADD PUSH1 0x5 SHR DUP2 ADD PUSH1 0x20 DUP7 LT ISZERO PUSH2 0x72F JUMPI POP DUP1 JUMPDEST PUSH1 0x1F DUP6 ADD PUSH1 0x5 SHR DUP3 ADD SWAP2 POP JUMPDEST DUP2 DUP2 LT ISZERO PUSH2 0x74E JUMPI DUP3 DUP2 SSTORE PUSH1 0x1 ADD PUSH2 0x73B JUMP JUMPDEST POP POP POP JUMPDEST POP POP POP JUMP JUMPDEST DUP2 MLOAD PUSH8 0xFFFFFFFFFFFFFFFF DUP2 GT ISZERO PUSH2 0x771 JUMPI PUSH2 0x771 PUSH2 0x49A JUMP JUMPDEST PUSH2 0x785 DUP2 PUSH2 0x77F DUP5 SLOAD PUSH2 0x6BB JUMP JUMPDEST DUP5 PUSH2 0x708 JUMP JUMPDEST PUSH1 0x20 DUP1 PUSH1 0x1F DUP4 GT PUSH1 0x1 DUP2 EQ PUSH2 0x7BA JUMPI PUSH1 0x0 DUP5 ISZERO PUSH2 0x7A2 JUMPI POP DUP6 DUP4 ADD MLOAD JUMPDEST PUSH1 0x0 NOT PUSH1 0x3 DUP7 SWAP1 SHL SHR NOT AND PUSH1 0x1 DUP6 SWAP1 SHL OR DUP6 SSTORE PUSH2 0x74E JUMP JUMPDEST PUSH1 0x0 DUP6 DUP2 MSTORE PUSH1 0x20 DUP2 KECCAK256 PUSH1 0x1F NOT DUP7 AND SWAP2 JUMPDEST DUP3 DUP2 LT ISZERO PUSH2 0x7E9 JUMPI DUP9 DUP7 ADD MLOAD DUP3 SSTORE SWAP5 DUP5 ADD SWAP5 PUSH1 0x1 SWAP1 SWAP2 ADD SWAP1 DUP5 ADD PUSH2 0x7CA JUMP JUMPDEST POP DUP6 DUP3 LT ISZERO PUSH2 0x807 JUMPI DUP8 DUP6 ADD MLOAD PUSH1 0x0 NOT PUSH1 0x3 DUP9 SWAP1 SHL PUSH1 0xF8 AND SHR NOT AND DUP2 SSTORE JUMPDEST POP POP POP POP POP PUSH1 0x1 SWAP1 DUP2 SHL ADD SWAP1 SSTORE POP JUMP INVALID LOG2 PUSH5 0x6970667358 0x22 SLT KECCAK256 NUMBER EXP ADDMOD 0x49 DUP10 PUSH4 0x2323FA41 PUSH31 0xEE5BF99AA604846A663A2388C6580380316735F0BB64736F6C634300081500 CALLER ","sha1":"baf8089179269ac82b4cdf0c02dc209dbdd20a75","source":"// SPDX-License-Identifier: MIT\n\npragma solidity ^0.8.0;\n\ncontract SuperCoin {\n    uint256 internal issuedCoins = 2000;\n    mapping(string => uint256) internal balances;\n\n    constructor(){\n        balances[\"three@gmail.com\"] = issuedCoins;\n    }\n\n    struct Transaction {\n        string sender;\n        string receiver;\n        uint256 amount;\n        uint256 timestamp;\n    }\n\n    Transaction[] public transactions;\n\n    event Transfer(string sender, string recipient, uint256 amount, uint256 t);\n\n    function totalCoins() public view returns (uint256){\n        return issuedCoins;\n    }\n\n\n    function addCoins(uint256 coins) public returns (bool){\n        issuedCoins += coins;\n        emit Transfer(\"None\", \"three@gmail.com\", coins, block.timestamp);\n        return true;\n    }\n\n    function getBalance(string memory email) public view returns (uint256){\n        return balances[email];\n    }\n\n    function createAccount(string memory email) public returns (bool){\n        balances[email] = 0;\n        return true;\n    }\n\n    function transfer(string memory sender, string memory recipient, uint256 amount) public returns (bool){\n        balances[recipient] += amount;\n        balances[sender] -= amount;\n        Transaction memory newTransaction = Transaction({\n            sender: sender,\n            receiver: recipient,\n            amount: amount,\n            timestamp: block.timestamp\n        });\n        transactions.push(newTransaction);\n        emit Transfer(sender, recipient, amount, block.timestamp);\n        return true;\n    }\n\n}","sourcePath":"contracts/SuperCoin.sol","deployment":{"address":"0x8a0c0366985A2A070d836A5E6C84E52bfc381975","chainid":"80001","blockHeight":39215939}}