{"bytecode":"60806040526107d060005534801561001657600080fd5b506000546040516e746872656540676d61696c2e636f6d60881b8152600190600f0190815260405190819003602001902055610804806100576000396000f3fe608060405234801561001057600080fd5b50600436106100575760003560e01c80630173e3f41461005c57806332454dbb146100845780633a51d246146100965780639ace38c2146100a95780639b80b050146100cc575b600080fd5b61006f61006a366004610438565b6100df565b60405190151581526020015b60405180910390f35b6000545b60405190815260200161007b565b6100886100a43660046104f4565b61017c565b6100bc6100b7366004610438565b6101a4565b60405161007b9493929190610581565b61006f6100da3660046105ba565b6102f4565b6000816000808282546100f2919061063d565b9091555050604080516080808252600490820152634e6f6e6560e01b60a082015260c060208201819052600f908201526e746872656540676d61696c2e636f6d60881b60e08201529081018390524260608201527f21c7d11c3d49b4d4060a66592c507eb89d6f5bc9fc9478162dd9dafc5c41672a906101000160405180910390a1506001919050565b600060018260405161018e9190610656565b9081526020016040518091039020549050919050565b600281815481106101b457600080fd5b90600052602060002090600402016000915090508060000180546101d790610672565b80601f016020809104026020016040519081016040528092919081815260200182805461020390610672565b80156102505780601f1061022557610100808354040283529160200191610250565b820191906000526020600020905b81548152906001019060200180831161023357829003601f168201915b50505050509080600101805461026590610672565b80601f016020809104026020016040519081016040528092919081815260200182805461029190610672565b80156102de5780601f106102b3576101008083540402835291602001916102de565b820191906000526020600020905b8154815290600101906020018083116102c157829003601f168201915b5050505050908060020154908060030154905084565b6000816001846040516103079190610656565b90815260200160405180910390206000828254610324919061063d565b925050819055508160018560405161033c9190610656565b9081526020016040518091039020600082825461035991906106ac565b9091555050604080516080810182528581526020810185905290810183905242606082015260028054600181018255600091909152815182916004027f405787fa12a823e0f2b7631cc41b3ba8828b3321ca811111fa75cd3aa3bb5ace019081906103c4908261070e565b50602082015160018201906103d9908261070e565b50604082015181600201556060820151816003015550507f21c7d11c3d49b4d4060a66592c507eb89d6f5bc9fc9478162dd9dafc5c41672a858585426040516104259493929190610581565b60405180910390a1506001949350505050565b60006020828403121561044a57600080fd5b5035919050565b634e487b7160e01b600052604160045260246000fd5b600082601f83011261047857600080fd5b813567ffffffffffffffff8082111561049357610493610451565b604051601f8301601f19908116603f011681019082821181831017156104bb576104bb610451565b816040528381528660208588010111156104d457600080fd5b836020870160208301376000602085830101528094505050505092915050565b60006020828403121561050657600080fd5b813567ffffffffffffffff81111561051d57600080fd5b61052984828501610467565b949350505050565b60005b8381101561054c578181015183820152602001610534565b50506000910152565b6000815180845261056d816020860160208601610531565b601f01601f19169290920160200192915050565b6080815260006105946080830187610555565b82810360208401526105a68187610555565b604084019590955250506060015292915050565b6000806000606084860312156105cf57600080fd5b833567ffffffffffffffff808211156105e757600080fd5b6105f387838801610467565b9450602086013591508082111561060957600080fd5b5061061686828701610467565b925050604084013590509250925092565b634e487b7160e01b600052601160045260246000fd5b8082018082111561065057610650610627565b92915050565b60008251610668818460208701610531565b9190910192915050565b600181811c9082168061068657607f821691505b6020821081036106a657634e487b7160e01b600052602260045260246000fd5b50919050565b8181038181111561065057610650610627565b601f82111561070957600081815260208120601f850160051c810160208610156106e65750805b601f850160051c820191505b81811015610705578281556001016106f2565b5050505b505050565b815167ffffffffffffffff81111561072857610728610451565b61073c816107368454610672565b846106bf565b602080601f83116001811461077157600084156107595750858301515b600019600386901b1c1916600185901b178555610705565b600085815260208120601f198616915b828110156107a057888601518255948401946001909101908401610781565b50858210156107be5787850151600019600388901b60f8161c191681555b5050505050600190811b0190555056fea26469706673582212205839905573facd2d7c1b091d3ef604960a5d869a05e00dbe8c9f9a1d81e3ce1a64736f6c63430008150033","bytecodeSha1":"8ed21b7a903fb61092ab6a50d60602ed6c5cc19d","type":"contract","abi":[{"inputs":[],"stateMutability":"nonpayable","type":"constructor","name":"constructor"},{"anonymous":false,"inputs":[{"indexed":false,"internalType":"string","name":"sender","type":"string"},{"indexed":false,"internalType":"string","name":"recipient","type":"string"},{"indexed":false,"internalType":"uint256","name":"amount","type":"uint256"},{"indexed":false,"internalType":"uint256","name":"t","type":"uint256"}],"name":"Transfer","type":"event"},{"inputs":[{"internalType":"uint256","name":"coins","type":"uint256"}],"name":"addCoins","outputs":[{"internalType":"bool","name":"","type":"bool"}],"stateMutability":"nonpayable","type":"function"},{"inputs":[{"internalType":"string","name":"email","type":"string"}],"name":"getBalance","outputs":[{"internalType":"uint256","name":"","type":"uint256"}],"stateMutability":"view","type":"function"},{"inputs":[],"name":"totalCoins","outputs":[{"internalType":"uint256","name":"","type":"uint256"}],"stateMutability":"view","type":"function"},{"inputs":[{"internalType":"uint256","name":"","type":"uint256"}],"name":"transactions","outputs":[{"internalType":"string","name":"sender","type":"string"},{"internalType":"string","name":"receiver","type":"string"},{"internalType":"uint256","name":"amount","type":"uint256"},{"internalType":"uint256","name":"timestamp","type":"uint256"}],"stateMutability":"view","type":"function"},{"inputs":[{"internalType":"string","name":"sender","type":"string"},{"internalType":"string","name":"recipient","type":"string"},{"internalType":"uint256","name":"amount","type":"uint256"}],"name":"transfer","outputs":[{"internalType":"bool","name":"","type":"bool"}],"stateMutability":"nonpayable","type":"function"}],"compiler":{"version":"0.8.21+commit.d9974bed","evm_version":"istanbul","optimizer":{"enabled":true,"runs":200}},"contractName":"SuperCoin","language":"Solidity","natspec":{"methods":{},"kind":"dev","version":1},"opcodes":"PUSH1 0x80 PUSH1 0x40 MSTORE CALLVALUE DUP1 ISZERO PUSH2 0x10 JUMPI PUSH1 0x0 DUP1 REVERT JUMPDEST POP PUSH1 0x4 CALLDATASIZE LT PUSH2 0x57 JUMPI PUSH1 0x0 CALLDATALOAD PUSH1 0xE0 SHR DUP1 PUSH4 0x173E3F4 EQ PUSH2 0x5C JUMPI DUP1 PUSH4 0x32454DBB EQ PUSH2 0x84 JUMPI DUP1 PUSH4 0x3A51D246 EQ PUSH2 0x96 JUMPI DUP1 PUSH4 0x9ACE38C2 EQ PUSH2 0xA9 JUMPI DUP1 PUSH4 0x9B80B050 EQ PUSH2 0xCC JUMPI JUMPDEST PUSH1 0x0 DUP1 REVERT JUMPDEST PUSH2 0x6F PUSH2 0x6A CALLDATASIZE PUSH1 0x4 PUSH2 0x438 JUMP JUMPDEST PUSH2 0xDF JUMP JUMPDEST PUSH1 0x40 MLOAD SWAP1 ISZERO ISZERO DUP2 MSTORE PUSH1 0x20 ADD JUMPDEST PUSH1 0x40 MLOAD DUP1 SWAP2 SUB SWAP1 RETURN JUMPDEST PUSH1 0x0 SLOAD JUMPDEST PUSH1 0x40 MLOAD SWAP1 DUP2 MSTORE PUSH1 0x20 ADD PUSH2 0x7B JUMP JUMPDEST PUSH2 0x88 PUSH2 0xA4 CALLDATASIZE PUSH1 0x4 PUSH2 0x4F4 JUMP JUMPDEST PUSH2 0x17C JUMP JUMPDEST PUSH2 0xBC PUSH2 0xB7 CALLDATASIZE PUSH1 0x4 PUSH2 0x438 JUMP JUMPDEST PUSH2 0x1A4 JUMP JUMPDEST PUSH1 0x40 MLOAD PUSH2 0x7B SWAP5 SWAP4 SWAP3 SWAP2 SWAP1 PUSH2 0x581 JUMP JUMPDEST PUSH2 0x6F PUSH2 0xDA CALLDATASIZE PUSH1 0x4 PUSH2 0x5BA JUMP JUMPDEST PUSH2 0x2F4 JUMP JUMPDEST PUSH1 0x0 DUP2 PUSH1 0x0 DUP1 DUP3 DUP3 SLOAD PUSH2 0xF2 SWAP2 SWAP1 PUSH2 0x63D JUMP JUMPDEST SWAP1 SWAP2 SSTORE POP POP PUSH1 0x40 DUP1 MLOAD PUSH1 0x80 DUP1 DUP3 MSTORE PUSH1 0x4 SWAP1 DUP3 ADD MSTORE PUSH4 0x4E6F6E65 PUSH1 0xE0 SHL PUSH1 0xA0 DUP3 ADD MSTORE PUSH1 0xC0 PUSH1 0x20 DUP3 ADD DUP2 SWAP1 MSTORE PUSH1 0xF SWAP1 DUP3 ADD MSTORE PUSH15 0x746872656540676D61696C2E636F6D PUSH1 0x88 SHL PUSH1 0xE0 DUP3 ADD MSTORE SWAP1 DUP2 ADD DUP4 SWAP1 MSTORE TIMESTAMP PUSH1 0x60 DUP3 ADD MSTORE PUSH32 0x21C7D11C3D49B4D4060A66592C507EB89D6F5BC9FC9478162DD9DAFC5C41672A SWAP1 PUSH2 0x100 ADD PUSH1 0x40 MLOAD DUP1 SWAP2 SUB SWAP1 LOG1 POP PUSH1 0x1 SWAP2 SWAP1 POP JUMP JUMPDEST PUSH1 0x0 PUSH1 0x1 DUP3 PUSH1 0x40 MLOAD PUSH2 0x18E SWAP2 SWAP1 PUSH2 0x656 JUMP JUMPDEST SWAP1 DUP2 MSTORE PUSH1 0x20 ADD PUSH1 0x40 MLOAD DUP1 SWAP2 SUB SWAP1 KECCAK256 SLOAD SWAP1 POP SWAP2 SWAP1 POP JUMP JUMPDEST PUSH1 0x2 DUP2 DUP2 SLOAD DUP2 LT PUSH2 0x1B4 JUMPI PUSH1 0x0 DUP1 REVERT JUMPDEST SWAP1 PUSH1 0x0 MSTORE PUSH1 0x20 PUSH1 0x0 KECCAK256 SWAP1 PUSH1 0x4 MUL ADD PUSH1 0x0 SWAP2 POP SWAP1 POP DUP1 PUSH1 0x0 ADD DUP1 SLOAD PUSH2 0x1D7 SWAP1 PUSH2 0x672 JUMP JUMPDEST DUP1 PUSH1 0x1F ADD PUSH1 0x20 DUP1 SWAP2 DIV MUL PUSH1 0x20 ADD PUSH1 0x40 MLOAD SWAP1 DUP2 ADD PUSH1 0x40 MSTORE DUP1 SWAP3 SWAP2 SWAP1 DUP2 DUP2 MSTORE PUSH1 0x20 ADD DUP3 DUP1 SLOAD PUSH2 0x203 SWAP1 PUSH2 0x672 JUMP JUMPDEST DUP1 ISZERO PUSH2 0x250 JUMPI DUP1 PUSH1 0x1F LT PUSH2 0x225 JUMPI PUSH2 0x100 DUP1 DUP4 SLOAD DIV MUL DUP4 MSTORE SWAP2 PUSH1 0x20 ADD SWAP2 PUSH2 0x250 JUMP JUMPDEST DUP3 ADD SWAP2 SWAP1 PUSH1 0x0 MSTORE PUSH1 0x20 PUSH1 0x0 KECCAK256 SWAP1 JUMPDEST DUP2 SLOAD DUP2 MSTORE SWAP1 PUSH1 0x1 ADD SWAP1 PUSH1 0x20 ADD DUP1 DUP4 GT PUSH2 0x233 JUMPI DUP3 SWAP1 SUB PUSH1 0x1F AND DUP3 ADD SWAP2 JUMPDEST POP POP POP POP POP SWAP1 DUP1 PUSH1 0x1 ADD DUP1 SLOAD PUSH2 0x265 SWAP1 PUSH2 0x672 JUMP JUMPDEST DUP1 PUSH1 0x1F ADD PUSH1 0x20 DUP1 SWAP2 DIV MUL PUSH1 0x20 ADD PUSH1 0x40 MLOAD SWAP1 DUP2 ADD PUSH1 0x40 MSTORE DUP1 SWAP3 SWAP2 SWAP1 DUP2 DUP2 MSTORE PUSH1 0x20 ADD DUP3 DUP1 SLOAD PUSH2 0x291 SWAP1 PUSH2 0x672 JUMP JUMPDEST DUP1 ISZERO PUSH2 0x2DE JUMPI DUP1 PUSH1 0x1F LT PUSH2 0x2B3 JUMPI PUSH2 0x100 DUP1 DUP4 SLOAD DIV MUL DUP4 MSTORE SWAP2 PUSH1 0x20 ADD SWAP2 PUSH2 0x2DE JUMP JUMPDEST DUP3 ADD SWAP2 SWAP1 PUSH1 0x0 MSTORE PUSH1 0x20 PUSH1 0x0 KECCAK256 SWAP1 JUMPDEST DUP2 SLOAD DUP2 MSTORE SWAP1 PUSH1 0x1 ADD SWAP1 PUSH1 0x20 ADD DUP1 DUP4 GT PUSH2 0x2C1 JUMPI DUP3 SWAP1 SUB PUSH1 0x1F AND DUP3 ADD SWAP2 JUMPDEST POP POP POP POP POP SWAP1 DUP1 PUSH1 0x2 ADD SLOAD SWAP1 DUP1 PUSH1 0x3 ADD SLOAD SWAP1 POP DUP5 JUMP JUMPDEST PUSH1 0x0 DUP2 PUSH1 0x1 DUP5 PUSH1 0x40 MLOAD PUSH2 0x307 SWAP2 SWAP1 PUSH2 0x656 JUMP JUMPDEST SWAP1 DUP2 MSTORE PUSH1 0x20 ADD PUSH1 0x40 MLOAD DUP1 SWAP2 SUB SWAP1 KECCAK256 PUSH1 0x0 DUP3 DUP3 SLOAD PUSH2 0x324 SWAP2 SWAP1 PUSH2 0x63D JUMP JUMPDEST SWAP3 POP POP DUP2 SWAP1 SSTORE POP DUP2 PUSH1 0x1 DUP6 PUSH1 0x40 MLOAD PUSH2 0x33C SWAP2 SWAP1 PUSH2 0x656 JUMP JUMPDEST SWAP1 DUP2 MSTORE PUSH1 0x20 ADD PUSH1 0x40 MLOAD DUP1 SWAP2 SUB SWAP1 KECCAK256 PUSH1 0x0 DUP3 DUP3 SLOAD PUSH2 0x359 SWAP2 SWAP1 PUSH2 0x6AC JUMP JUMPDEST SWAP1 SWAP2 SSTORE POP POP PUSH1 0x40 DUP1 MLOAD PUSH1 0x80 DUP2 ADD DUP3 MSTORE DUP6 DUP2 MSTORE PUSH1 0x20 DUP2 ADD DUP6 SWAP1 MSTORE SWAP1 DUP2 ADD DUP4 SWAP1 MSTORE TIMESTAMP PUSH1 0x60 DUP3 ADD MSTORE PUSH1 0x2 DUP1 SLOAD PUSH1 0x1 DUP2 ADD DUP3 SSTORE PUSH1 0x0 SWAP2 SWAP1 SWAP2 MSTORE DUP2 MLOAD DUP3 SWAP2 PUSH1 0x4 MUL PUSH32 0x405787FA12A823E0F2B7631CC41B3BA8828B3321CA811111FA75CD3AA3BB5ACE ADD SWAP1 DUP2 SWAP1 PUSH2 0x3C4 SWAP1 DUP3 PUSH2 0x70E JUMP JUMPDEST POP PUSH1 0x20 DUP3 ADD MLOAD PUSH1 0x1 DUP3 ADD SWAP1 PUSH2 0x3D9 SWAP1 DUP3 PUSH2 0x70E JUMP JUMPDEST POP PUSH1 0x40 DUP3 ADD MLOAD DUP2 PUSH1 0x2 ADD SSTORE PUSH1 0x60 DUP3 ADD MLOAD DUP2 PUSH1 0x3 ADD SSTORE POP POP PUSH32 0x21C7D11C3D49B4D4060A66592C507EB89D6F5BC9FC9478162DD9DAFC5C41672A DUP6 DUP6 DUP6 TIMESTAMP PUSH1 0x40 MLOAD PUSH2 0x425 SWAP5 SWAP4 SWAP3 SWAP2 SWAP1 PUSH2 0x581 JUMP JUMPDEST PUSH1 0x40 MLOAD DUP1 SWAP2 SUB SWAP1 LOG1 POP PUSH1 0x1 SWAP5 SWAP4 POP POP POP POP JUMP JUMPDEST PUSH1 0x0 PUSH1 0x20 DUP3 DUP5 SUB SLT ISZERO PUSH2 0x44A JUMPI PUSH1 0x0 DUP1 REVERT JUMPDEST POP CALLDATALOAD SWAP2 SWAP1 POP JUMP JUMPDEST PUSH4 0x4E487B71 PUSH1 0xE0 SHL PUSH1 0x0 MSTORE PUSH1 0x41 PUSH1 0x4 MSTORE PUSH1 0x24 PUSH1 0x0 REVERT JUMPDEST PUSH1 0x0 DUP3 PUSH1 0x1F DUP4 ADD SLT PUSH2 0x478 JUMPI PUSH1 0x0 DUP1 REVERT JUMPDEST DUP2 CALLDATALOAD PUSH8 0xFFFFFFFFFFFFFFFF DUP1 DUP3 GT ISZERO PUSH2 0x493 JUMPI PUSH2 0x493 PUSH2 0x451 JUMP JUMPDEST PUSH1 0x40 MLOAD PUSH1 0x1F DUP4 ADD PUSH1 0x1F NOT SWAP1 DUP2 AND PUSH1 0x3F ADD AND DUP2 ADD SWAP1 DUP3 DUP3 GT DUP2 DUP4 LT OR ISZERO PUSH2 0x4BB JUMPI PUSH2 0x4BB PUSH2 0x451 JUMP JUMPDEST DUP2 PUSH1 0x40 MSTORE DUP4 DUP2 MSTORE DUP7 PUSH1 0x20 DUP6 DUP9 ADD ADD GT ISZERO PUSH2 0x4D4 JUMPI PUSH1 0x0 DUP1 REVERT JUMPDEST DUP4 PUSH1 0x20 DUP8 ADD PUSH1 0x20 DUP4 ADD CALLDATACOPY PUSH1 0x0 PUSH1 0x20 DUP6 DUP4 ADD ADD MSTORE DUP1 SWAP5 POP POP POP POP POP SWAP3 SWAP2 POP POP JUMP JUMPDEST PUSH1 0x0 PUSH1 0x20 DUP3 DUP5 SUB SLT ISZERO PUSH2 0x506 JUMPI PUSH1 0x0 DUP1 REVERT JUMPDEST DUP2 CALLDATALOAD PUSH8 0xFFFFFFFFFFFFFFFF DUP2 GT ISZERO PUSH2 0x51D JUMPI PUSH1 0x0 DUP1 REVERT JUMPDEST PUSH2 0x529 DUP5 DUP3 DUP6 ADD PUSH2 0x467 JUMP JUMPDEST SWAP5 SWAP4 POP POP POP POP JUMP JUMPDEST PUSH1 0x0 JUMPDEST DUP4 DUP2 LT ISZERO PUSH2 0x54C JUMPI DUP2 DUP2 ADD MLOAD DUP4 DUP3 ADD MSTORE PUSH1 0x20 ADD PUSH2 0x534 JUMP JUMPDEST POP POP PUSH1 0x0 SWAP2 ADD MSTORE JUMP JUMPDEST PUSH1 0x0 DUP2 MLOAD DUP1 DUP5 MSTORE PUSH2 0x56D DUP2 PUSH1 0x20 DUP7 ADD PUSH1 0x20 DUP7 ADD PUSH2 0x531 JUMP JUMPDEST PUSH1 0x1F ADD PUSH1 0x1F NOT AND SWAP3 SWAP1 SWAP3 ADD PUSH1 0x20 ADD SWAP3 SWAP2 POP POP JUMP JUMPDEST PUSH1 0x80 DUP2 MSTORE PUSH1 0x0 PUSH2 0x594 PUSH1 0x80 DUP4 ADD DUP8 PUSH2 0x555 JUMP JUMPDEST DUP3 DUP2 SUB PUSH1 0x20 DUP5 ADD MSTORE PUSH2 0x5A6 DUP2 DUP8 PUSH2 0x555 JUMP JUMPDEST PUSH1 0x40 DUP5 ADD SWAP6 SWAP1 SWAP6 MSTORE POP POP PUSH1 0x60 ADD MSTORE SWAP3 SWAP2 POP POP JUMP JUMPDEST PUSH1 0x0 DUP1 PUSH1 0x0 PUSH1 0x60 DUP5 DUP7 SUB SLT ISZERO PUSH2 0x5CF JUMPI PUSH1 0x0 DUP1 REVERT JUMPDEST DUP4 CALLDATALOAD PUSH8 0xFFFFFFFFFFFFFFFF DUP1 DUP3 GT ISZERO PUSH2 0x5E7 JUMPI PUSH1 0x0 DUP1 REVERT JUMPDEST PUSH2 0x5F3 DUP8 DUP4 DUP9 ADD PUSH2 0x467 JUMP JUMPDEST SWAP5 POP PUSH1 0x20 DUP7 ADD CALLDATALOAD SWAP2 POP DUP1 DUP3 GT ISZERO PUSH2 0x609 JUMPI PUSH1 0x0 DUP1 REVERT JUMPDEST POP PUSH2 0x616 DUP7 DUP3 DUP8 ADD PUSH2 0x467 JUMP JUMPDEST SWAP3 POP POP PUSH1 0x40 DUP5 ADD CALLDATALOAD SWAP1 POP SWAP3 POP SWAP3 POP SWAP3 JUMP JUMPDEST PUSH4 0x4E487B71 PUSH1 0xE0 SHL PUSH1 0x0 MSTORE PUSH1 0x11 PUSH1 0x4 MSTORE PUSH1 0x24 PUSH1 0x0 REVERT JUMPDEST DUP1 DUP3 ADD DUP1 DUP3 GT ISZERO PUSH2 0x650 JUMPI PUSH2 0x650 PUSH2 0x627 JUMP JUMPDEST SWAP3 SWAP2 POP POP JUMP JUMPDEST PUSH1 0x0 DUP3 MLOAD PUSH2 0x668 DUP2 DUP5 PUSH1 0x20 DUP8 ADD PUSH2 0x531 JUMP JUMPDEST SWAP2 SWAP1 SWAP2 ADD SWAP3 SWAP2 POP POP JUMP JUMPDEST PUSH1 0x1 DUP2 DUP2 SHR SWAP1 DUP3 AND DUP1 PUSH2 0x686 JUMPI PUSH1 0x7F DUP3 AND SWAP2 POP JUMPDEST PUSH1 0x20 DUP3 LT DUP2 SUB PUSH2 0x6A6 JUMPI PUSH4 0x4E487B71 PUSH1 0xE0 SHL PUSH1 0x0 MSTORE PUSH1 0x22 PUSH1 0x4 MSTORE PUSH1 0x24 PUSH1 0x0 REVERT JUMPDEST POP SWAP2 SWAP1 POP JUMP JUMPDEST DUP2 DUP2 SUB DUP2 DUP2 GT ISZERO PUSH2 0x650 JUMPI PUSH2 0x650 PUSH2 0x627 JUMP JUMPDEST PUSH1 0x1F DUP3 GT ISZERO PUSH2 0x709 JUMPI PUSH1 0x0 DUP2 DUP2 MSTORE PUSH1 0x20 DUP2 KECCAK256 PUSH1 0x1F DUP6 ADD PUSH1 0x5 SHR DUP2 ADD PUSH1 0x20 DUP7 LT ISZERO PUSH2 0x6E6 JUMPI POP DUP1 JUMPDEST PUSH1 0x1F DUP6 ADD PUSH1 0x5 SHR DUP3 ADD SWAP2 POP JUMPDEST DUP2 DUP2 LT ISZERO PUSH2 0x705 JUMPI DUP3 DUP2 SSTORE PUSH1 0x1 ADD PUSH2 0x6F2 JUMP JUMPDEST POP POP POP JUMPDEST POP POP POP JUMP JUMPDEST DUP2 MLOAD PUSH8 0xFFFFFFFFFFFFFFFF DUP2 GT ISZERO PUSH2 0x728 JUMPI PUSH2 0x728 PUSH2 0x451 JUMP JUMPDEST PUSH2 0x73C DUP2 PUSH2 0x736 DUP5 SLOAD PUSH2 0x672 JUMP JUMPDEST DUP5 PUSH2 0x6BF JUMP JUMPDEST PUSH1 0x20 DUP1 PUSH1 0x1F DUP4 GT PUSH1 0x1 DUP2 EQ PUSH2 0x771 JUMPI PUSH1 0x0 DUP5 ISZERO PUSH2 0x759 JUMPI POP DUP6 DUP4 ADD MLOAD JUMPDEST PUSH1 0x0 NOT PUSH1 0x3 DUP7 SWAP1 SHL SHR NOT AND PUSH1 0x1 DUP6 SWAP1 SHL OR DUP6 SSTORE PUSH2 0x705 JUMP JUMPDEST PUSH1 0x0 DUP6 DUP2 MSTORE PUSH1 0x20 DUP2 KECCAK256 PUSH1 0x1F NOT DUP7 AND SWAP2 JUMPDEST DUP3 DUP2 LT ISZERO PUSH2 0x7A0 JUMPI DUP9 DUP7 ADD MLOAD DUP3 SSTORE SWAP5 DUP5 ADD SWAP5 PUSH1 0x1 SWAP1 SWAP2 ADD SWAP1 DUP5 ADD PUSH2 0x781 JUMP JUMPDEST POP DUP6 DUP3 LT ISZERO PUSH2 0x7BE JUMPI DUP8 DUP6 ADD MLOAD PUSH1 0x0 NOT PUSH1 0x3 DUP9 SWAP1 SHL PUSH1 0xF8 AND SHR NOT AND DUP2 SSTORE JUMPDEST POP POP POP POP POP PUSH1 0x1 SWAP1 DUP2 SHL ADD SWAP1 SSTORE POP JUMP INVALID LOG2 PUSH5 0x6970667358 0x22 SLT KECCAK256 PC CODECOPY SWAP1 SSTORE PUSH20 0xFACD2D7C1B091D3EF604960A5D869A05E00DBE8C SWAP16 SWAP11 SAR DUP2 0xE3 0xCE BYTE PUSH5 0x736F6C6343 STOP ADDMOD ISZERO STOP CALLER ","sha1":"94c6548cf5fc2719098266c672be7a0b788e5709","source":"// SPDX-License-Identifier: MIT\n\npragma solidity ^0.8.0;\n\ncontract SuperCoin {\n    uint256 internal issuedCoins = 2000;\n    mapping(string => uint256) internal balances;\n\n    constructor(){\n        balances[\"three@gmail.com\"] = issuedCoins;\n    }\n\n    struct Transaction {\n        string sender;\n        string receiver;\n        uint256 amount;\n        uint256 timestamp;\n    }\n\n    Transaction[] public transactions;\n\n    event Transfer(string sender, string recipient, uint256 amount, uint256 t);\n\n    function totalCoins() public view returns (uint256){\n        return issuedCoins;\n    }\n\n\n    function addCoins(uint256 coins) public returns (bool){\n        issuedCoins += coins;\n        emit Transfer(\"None\", \"three@gmail.com\", coins, block.timestamp);\n        return true;\n    }\n\n    function getBalance(string memory email) public view returns (uint256){\n        return balances[email];\n    }\n\n    function transfer(string memory sender, string memory recipient, uint256 amount) public returns (bool){\n        balances[recipient] += amount;\n        balances[sender] -= amount;\n        Transaction memory newTransaction = Transaction({\n            sender: sender,\n            receiver: recipient,\n            amount: amount,\n            timestamp: block.timestamp\n        });\n        transactions.push(newTransaction);\n        emit Transfer(sender, recipient, amount, block.timestamp);\n        return true;\n    }\n\n}","sourcePath":"contracts/SuperCoin.sol","deployment":{"address":"0xfE82983E05CAE88c2616D8D409CB9Fb9eDcA9D62","chainid":"80001","blockHeight":39214187}}